{
  "_format": "hh3-artifact-1",
  "contractName": "Kiln1155",
  "sourceName": "contracts/Kiln1155.sol",
  "abi": [
    {
      "inputs": [
        {
          "internalType": "string",
          "name": "baseURI",
          "type": "string"
        }
      ],
      "stateMutability": "nonpayable",
      "type": "constructor"
    },
    {
      "inputs": [
        {
          "internalType": "address",
          "name": "sender",
          "type": "address"
        },
        {
          "internalType": "uint256",
          "name": "balance",
          "type": "uint256"
        },
        {
          "internalType": "uint256",
          "name": "needed",
          "type": "uint256"
        },
        {
          "internalType": "uint256",
          "name": "tokenId",
          "type": "uint256"
        }
      ],
      "name": "ERC1155InsufficientBalance",
      "type": "error"
    },
    {
      "inputs": [
        {
          "internalType": "address",
          "name": "approver",
          "type": "address"
        }
      ],
      "name": "ERC1155InvalidApprover",
      "type": "error"
    },
    {
      "inputs": [
        {
          "internalType": "uint256",
          "name": "idsLength",
          "type": "uint256"
        },
        {
          "internalType": "uint256",
          "name": "valuesLength",
          "type": "uint256"
        }
      ],
      "name": "ERC1155InvalidArrayLength",
      "type": "error"
    },
    {
      "inputs": [
        {
          "internalType": "address",
          "name": "operator",
          "type": "address"
        }
      ],
      "name": "ERC1155InvalidOperator",
      "type": "error"
    },
    {
      "inputs": [
        {
          "internalType": "address",
          "name": "receiver",
          "type": "address"
        }
      ],
      "name": "ERC1155InvalidReceiver",
      "type": "error"
    },
    {
      "inputs": [
        {
          "internalType": "address",
          "name": "sender",
          "type": "address"
        }
      ],
      "name": "ERC1155InvalidSender",
      "type": "error"
    },
    {
      "inputs": [
        {
          "internalType": "address",
          "name": "operator",
          "type": "address"
        },
        {
          "internalType": "address",
          "name": "owner",
          "type": "address"
        }
      ],
      "name": "ERC1155MissingApprovalForAll",
      "type": "error"
    },
    {
      "inputs": [
        {
          "internalType": "address",
          "name": "owner",
          "type": "address"
        }
      ],
      "name": "OwnableInvalidOwner",
      "type": "error"
    },
    {
      "inputs": [
        {
          "internalType": "address",
          "name": "account",
          "type": "address"
        }
      ],
      "name": "OwnableUnauthorizedAccount",
      "type": "error"
    },
    {
      "anonymous": false,
      "inputs": [
        {
          "indexed": true,
          "internalType": "address",
          "name": "account",
          "type": "address"
        },
        {
          "indexed": true,
          "internalType": "address",
          "name": "operator",
          "type": "address"
        },
        {
          "indexed": false,
          "internalType": "bool",
          "name": "approved",
          "type": "bool"
        }
      ],
      "name": "ApprovalForAll",
      "type": "event"
    },
    {
      "anonymous": false,
      "inputs": [
        {
          "indexed": true,
          "internalType": "address",
          "name": "previousOwner",
          "type": "address"
        },
        {
          "indexed": true,
          "internalType": "address",
          "name": "newOwner",
          "type": "address"
        }
      ],
      "name": "OwnershipTransferred",
      "type": "event"
    },
    {
      "anonymous": false,
      "inputs": [
        {
          "indexed": true,
          "internalType": "address",
          "name": "operator",
          "type": "address"
        },
        {
          "indexed": true,
          "internalType": "address",
          "name": "from",
          "type": "address"
        },
        {
          "indexed": true,
          "internalType": "address",
          "name": "to",
          "type": "address"
        },
        {
          "indexed": false,
          "internalType": "uint256[]",
          "name": "ids",
          "type": "uint256[]"
        },
        {
          "indexed": false,
          "internalType": "uint256[]",
          "name": "values",
          "type": "uint256[]"
        }
      ],
      "name": "TransferBatch",
      "type": "event"
    },
    {
      "anonymous": false,
      "inputs": [
        {
          "indexed": true,
          "internalType": "address",
          "name": "operator",
          "type": "address"
        },
        {
          "indexed": true,
          "internalType": "address",
          "name": "from",
          "type": "address"
        },
        {
          "indexed": true,
          "internalType": "address",
          "name": "to",
          "type": "address"
        },
        {
          "indexed": false,
          "internalType": "uint256",
          "name": "id",
          "type": "uint256"
        },
        {
          "indexed": false,
          "internalType": "uint256",
          "name": "value",
          "type": "uint256"
        }
      ],
      "name": "TransferSingle",
      "type": "event"
    },
    {
      "anonymous": false,
      "inputs": [
        {
          "indexed": false,
          "internalType": "string",
          "name": "value",
          "type": "string"
        },
        {
          "indexed": true,
          "internalType": "uint256",
          "name": "id",
          "type": "uint256"
        }
      ],
      "name": "URI",
      "type": "event"
    },
    {
      "inputs": [],
      "name": "MAX_SUPPLY",
      "outputs": [
        {
          "internalType": "uint256",
          "name": "",
          "type": "uint256"
        }
      ],
      "stateMutability": "view",
      "type": "function"
    },
    {
      "inputs": [
        {
          "internalType": "address",
          "name": "account",
          "type": "address"
        },
        {
          "internalType": "uint256",
          "name": "id",
          "type": "uint256"
        }
      ],
      "name": "balanceOf",
      "outputs": [
        {
          "internalType": "uint256",
          "name": "",
          "type": "uint256"
        }
      ],
      "stateMutability": "view",
      "type": "function"
    },
    {
      "inputs": [
        {
          "internalType": "address[]",
          "name": "accounts",
          "type": "address[]"
        },
        {
          "internalType": "uint256[]",
          "name": "ids",
          "type": "uint256[]"
        }
      ],
      "name": "balanceOfBatch",
      "outputs": [
        {
          "internalType": "uint256[]",
          "name": "",
          "type": "uint256[]"
        }
      ],
      "stateMutability": "view",
      "type": "function"
    },
    {
      "inputs": [
        {
          "internalType": "uint256",
          "name": "id",
          "type": "uint256"
        },
        {
          "internalType": "uint256",
          "name": "amount",
          "type": "uint256"
        }
      ],
      "name": "claim",
      "outputs": [],
      "stateMutability": "nonpayable",
      "type": "function"
    },
    {
      "inputs": [
        {
          "internalType": "address",
          "name": "account",
          "type": "address"
        },
        {
          "internalType": "address",
          "name": "operator",
          "type": "address"
        }
      ],
      "name": "isApprovedForAll",
      "outputs": [
        {
          "internalType": "bool",
          "name": "",
          "type": "bool"
        }
      ],
      "stateMutability": "view",
      "type": "function"
    },
    {
      "inputs": [],
      "name": "owner",
      "outputs": [
        {
          "internalType": "address",
          "name": "",
          "type": "address"
        }
      ],
      "stateMutability": "view",
      "type": "function"
    },
    {
      "inputs": [],
      "name": "renounceOwnership",
      "outputs": [],
      "stateMutability": "nonpayable",
      "type": "function"
    },
    {
      "inputs": [
        {
          "internalType": "address",
          "name": "from",
          "type": "address"
        },
        {
          "internalType": "address",
          "name": "to",
          "type": "address"
        },
        {
          "internalType": "uint256[]",
          "name": "ids",
          "type": "uint256[]"
        },
        {
          "internalType": "uint256[]",
          "name": "values",
          "type": "uint256[]"
        },
        {
          "internalType": "bytes",
          "name": "data",
          "type": "bytes"
        }
      ],
      "name": "safeBatchTransferFrom",
      "outputs": [],
      "stateMutability": "nonpayable",
      "type": "function"
    },
    {
      "inputs": [
        {
          "internalType": "address",
          "name": "from",
          "type": "address"
        },
        {
          "internalType": "address",
          "name": "to",
          "type": "address"
        },
        {
          "internalType": "uint256",
          "name": "id",
          "type": "uint256"
        },
        {
          "internalType": "uint256",
          "name": "value",
          "type": "uint256"
        },
        {
          "internalType": "bytes",
          "name": "data",
          "type": "bytes"
        }
      ],
      "name": "safeTransferFrom",
      "outputs": [],
      "stateMutability": "nonpayable",
      "type": "function"
    },
    {
      "inputs": [
        {
          "internalType": "address",
          "name": "operator",
          "type": "address"
        },
        {
          "internalType": "bool",
          "name": "approved",
          "type": "bool"
        }
      ],
      "name": "setApprovalForAll",
      "outputs": [],
      "stateMutability": "nonpayable",
      "type": "function"
    },
    {
      "inputs": [
        {
          "internalType": "bytes4",
          "name": "interfaceId",
          "type": "bytes4"
        }
      ],
      "name": "supportsInterface",
      "outputs": [
        {
          "internalType": "bool",
          "name": "",
          "type": "bool"
        }
      ],
      "stateMutability": "view",
      "type": "function"
    },
    {
      "inputs": [
        {
          "internalType": "uint256",
          "name": "",
          "type": "uint256"
        }
      ],
      "name": "totalMinted",
      "outputs": [
        {
          "internalType": "uint256",
          "name": "",
          "type": "uint256"
        }
      ],
      "stateMutability": "view",
      "type": "function"
    },
    {
      "inputs": [
        {
          "internalType": "address",
          "name": "newOwner",
          "type": "address"
        }
      ],
      "name": "transferOwnership",
      "outputs": [],
      "stateMutability": "nonpayable",
      "type": "function"
    },
    {
      "inputs": [
        {
          "internalType": "uint256",
          "name": "",
          "type": "uint256"
        }
      ],
      "name": "uri",
      "outputs": [
        {
          "internalType": "string",
          "name": "",
          "type": "string"
        }
      ],
      "stateMutability": "view",
      "type": "function"
    }
  ],
  "bytecode": "0x608060405234801561000f575f5ffd5b5060405161163838038061163883398101604081905261002e916100ec565b338161003981610077565b506001600160a01b03811661006757604051631e4fbdf760e01b81525f600482015260240160405180910390fd5b61007081610087565b50506102da565b60026100838282610220565b5050565b600380546001600160a01b038381166001600160a01b0319831681179093556040519116919082907f8be0079c531659141344cd1fd0a4f28419497f9722a3daafe3b4186f6b6457e0905f90a35050565b634e487b7160e01b5f52604160045260245ffd5b5f602082840312156100fc575f5ffd5b81516001600160401b03811115610111575f5ffd5b8201601f81018413610121575f5ffd5b80516001600160401b0381111561013a5761013a6100d8565b604051601f8201601f19908116603f011681016001600160401b0381118282101715610168576101686100d8565b60405281815282820160200186101561017f575f5ffd5b8160208401602083015e5f91810160200191909152949350505050565b600181811c908216806101b057607f821691505b6020821081036101ce57634e487b7160e01b5f52602260045260245ffd5b50919050565b601f82111561021b57805f5260205f20601f840160051c810160208510156101f95750805b601f840160051c820191505b81811015610218575f8155600101610205565b50505b505050565b81516001600160401b03811115610239576102396100d8565b61024d81610247845461019c565b846101d4565b6020601f82116001811461027f575f83156102685750848201515b5f19600385901b1c1916600184901b178455610218565b5f84815260208120601f198516915b828110156102ae578785015182556020948501946001909201910161028e565b50848210156102cb57868401515f19600387901b60f8161c191681555b50505050600190811b01905550565b611351806102e75f395ff3fe608060405234801561000f575f5ffd5b50600436106100e4575f3560e01c80638da5cb5b11610088578063c349026311610063578063c3490263146101e4578063e985e9c5146101f7578063f242432a1461020a578063f2fde38b1461021d575f5ffd5b80638da5cb5b146101975780639d7f4ebf146101b2578063a22cb465146101d1575f5ffd5b80632eb2c2d6116100c35780632eb2c2d61461015157806332cb6b0c146101665780634e1273f41461016f578063715018a61461018f575f5ffd5b8062fdd58e146100e857806301ffc9a71461010e5780630e89341c14610131575b5f5ffd5b6100fb6100f6366004610d1e565b610230565b6040519081526020015b60405180910390f35b61012161011c366004610d5b565b610257565b6040519015158152602001610105565b61014461013f366004610d7d565b6102a6565b6040516101059190610dc2565b61016461015f366004610f12565b610338565b005b6100fb6103e881565b61018261017d366004610fc1565b6103a4565b60405161010591906110be565b61016461046f565b6003546040516001600160a01b039091168152602001610105565b6100fb6101c0366004610d7d565b60046020525f908152604090205481565b6101646101df3660046110d0565b610482565b6101646101f2366004611109565b610491565b610121610205366004611129565b610572565b61016461021836600461115a565b61059f565b61016461022b3660046111ae565b6105fe565b5f818152602081815260408083206001600160a01b03861684529091529020545b92915050565b5f6001600160e01b03198216636cdb3d1360e11b148061028757506001600160e01b031982166303a24d0760e21b145b8061025157506301ffc9a760e01b6001600160e01b0319831614610251565b6060600280546102b5906111c7565b80601f01602080910402602001604051908101604052809291908181526020018280546102e1906111c7565b801561032c5780601f106103035761010080835404028352916020019161032c565b820191905f5260205f20905b81548152906001019060200180831161030f57829003601f168201915b50505050509050919050565b336001600160a01b038616811480159061035957506103578682610572565b155b1561038f5760405163711bec9160e11b81526001600160a01b038083166004830152871660248201526044015b60405180910390fd5b61039c868686868661063b565b505050505050565b606081518351146103d55781518351604051635b05999160e01b815260048101929092526024820152604401610386565b5f835167ffffffffffffffff8111156103f0576103f0610dd4565b604051908082528060200260200182016040528015610419578160200160208202803683370190505b5090505f5b84518110156104675760208082028601015161044290602080840287010151610230565b828281518110610454576104546111ff565b602090810291909101015260010161041e565b509392505050565b6104776106a0565b6104805f6106cd565b565b61048d33838361071e565b5050565b600582106104d45760405162461bcd60e51b815260206004820152601060248201526f125b9d985b1a59081d1bdad95b88125160821b6044820152606401610386565b5f828152600460205260409020546103e8906104f1908390611213565b11156105345760405162461bcd60e51b815260206004820152601260248201527113585e081cdd5c1c1b1e481c995858da195960721b6044820152606401610386565b5f8281526004602052604081208054839290610551908490611213565b9250508190555061048d33838360405180602001604052805f8152506107b2565b6001600160a01b039182165f90815260016020908152604080832093909416825291909152205460ff1690565b336001600160a01b03861681148015906105c057506105be8682610572565b155b156105f15760405163711bec9160e11b81526001600160a01b03808316600483015287166024820152604401610386565b61039c868686868661080d565b6106066106a0565b6001600160a01b03811661062f57604051631e4fbdf760e01b81525f6004820152602401610386565b610638816106cd565b50565b6001600160a01b03841661066457604051632bfa23e760e11b81525f6004820152602401610386565b6001600160a01b03851661068c57604051626a0d4560e21b81525f6004820152602401610386565b6106998585858585610899565b5050505050565b6003546001600160a01b031633146104805760405163118cdaa760e01b8152336004820152602401610386565b600380546001600160a01b038381166001600160a01b0319831681179093556040519116919082907f8be0079c531659141344cd1fd0a4f28419497f9722a3daafe3b4186f6b6457e0905f90a35050565b6001600160a01b0382166107465760405162ced3e160e81b81525f6004820152602401610386565b6001600160a01b038381165f81815260016020908152604080832094871680845294825291829020805460ff191686151590811790915591519182527f17307eab39ab6107e8899845ad3d59bd9653f200f220920489ca2b5937696c31910160405180910390a3505050565b6001600160a01b0384166107db57604051632bfa23e760e11b81525f6004820152602401610386565b6040805160018082526020820186905281830190815260608201859052608082019092529061039c5f87848487610899565b6001600160a01b03841661083657604051632bfa23e760e11b81525f6004820152602401610386565b6001600160a01b03851661085e57604051626a0d4560e21b81525f6004820152602401610386565b604080516001808252602082018690528183019081526060820185905260808201909252906108908787848487610899565b50505050505050565b6108a5858585856108ec565b6001600160a01b0384161561069957825133906001036108de57602084810151908401516108d7838989858589610afb565b505061039c565b61039c818787878787610c1c565b805182511461091b5781518151604051635b05999160e01b815260048101929092526024820152604401610386565b335f5b8351811015610a1d576020818102858101820151908501909101516001600160a01b038816156109cf575f828152602081815260408083206001600160a01b038c168452909152902054818110156109a9576040516303dee4c560e01b81526001600160a01b038a166004820152602481018290526044810183905260648101849052608401610386565b5f838152602081815260408083206001600160a01b038d16845290915290209082900390555b6001600160a01b03871615610a13575f828152602081815260408083206001600160a01b038b16845290915281208054839290610a0d908490611213565b90915550505b505060010161091e565b508251600103610a9d5760208301515f906020840151909150856001600160a01b0316876001600160a01b0316846001600160a01b03167fc3d58168c5ae7397731d063d5bbf3d657854427343f4c083240f7aacaa2d0f628585604051610a8e929190918252602082015260400190565b60405180910390a45050610699565b836001600160a01b0316856001600160a01b0316826001600160a01b03167f4a39dc06d4c0dbc64b70af90fd698a233a518aa5d07e595d983b8c0526c8f7fb8686604051610aec929190611232565b60405180910390a45050505050565b6001600160a01b0384163b1561039c5760405163f23a6e6160e01b81526001600160a01b0385169063f23a6e6190610b3f908990899088908890889060040161125f565b6020604051808303815f875af1925050508015610b79575060408051601f3d908101601f19168201909252610b76918101906112a3565b60015b610be0573d808015610ba6576040519150601f19603f3d011682016040523d82523d5f602084013e610bab565b606091505b5080515f03610bd857604051632bfa23e760e11b81526001600160a01b0386166004820152602401610386565b805160208201fd5b6001600160e01b0319811663f23a6e6160e01b1461089057604051632bfa23e760e11b81526001600160a01b0386166004820152602401610386565b6001600160a01b0384163b1561039c5760405163bc197c8160e01b81526001600160a01b0385169063bc197c8190610c6090899089908890889088906004016112be565b6020604051808303815f875af1925050508015610c9a575060408051601f3d908101601f19168201909252610c97918101906112a3565b60015b610cc7573d808015610ba6576040519150601f19603f3d011682016040523d82523d5f602084013e610bab565b6001600160e01b0319811663bc197c8160e01b1461089057604051632bfa23e760e11b81526001600160a01b0386166004820152602401610386565b80356001600160a01b0381168114610d19575f5ffd5b919050565b5f5f60408385031215610d2f575f5ffd5b610d3883610d03565b946020939093013593505050565b6001600160e01b031981168114610638575f5ffd5b5f60208284031215610d6b575f5ffd5b8135610d7681610d46565b9392505050565b5f60208284031215610d8d575f5ffd5b5035919050565b5f81518084528060208401602086015e5f602082860101526020601f19601f83011685010191505092915050565b602081525f610d766020830184610d94565b634e487b7160e01b5f52604160045260245ffd5b604051601f8201601f1916810167ffffffffffffffff81118282101715610e1157610e11610dd4565b604052919050565b5f67ffffffffffffffff821115610e3257610e32610dd4565b5060051b60200190565b5f82601f830112610e4b575f5ffd5b8135610e5e610e5982610e19565b610de8565b8082825260208201915060208360051b860101925085831115610e7f575f5ffd5b602085015b83811015610e9c578035835260209283019201610e84565b5095945050505050565b5f82601f830112610eb5575f5ffd5b813567ffffffffffffffff811115610ecf57610ecf610dd4565b610ee2601f8201601f1916602001610de8565b818152846020838601011115610ef6575f5ffd5b816020850160208301375f918101602001919091529392505050565b5f5f5f5f5f60a08688031215610f26575f5ffd5b610f2f86610d03565b9450610f3d60208701610d03565b9350604086013567ffffffffffffffff811115610f58575f5ffd5b610f6488828901610e3c565b935050606086013567ffffffffffffffff811115610f80575f5ffd5b610f8c88828901610e3c565b925050608086013567ffffffffffffffff811115610fa8575f5ffd5b610fb488828901610ea6565b9150509295509295909350565b5f5f60408385031215610fd2575f5ffd5b823567ffffffffffffffff811115610fe8575f5ffd5b8301601f81018513610ff8575f5ffd5b8035611006610e5982610e19565b8082825260208201915060208360051b850101925087831115611027575f5ffd5b6020840193505b828410156110505761103f84610d03565b82526020938401939091019061102e565b9450505050602083013567ffffffffffffffff81111561106e575f5ffd5b61107a85828601610e3c565b9150509250929050565b5f8151808452602084019350602083015f5b828110156110b4578151865260209586019590910190600101611096565b5093949350505050565b602081525f610d766020830184611084565b5f5f604083850312156110e1575f5ffd5b6110ea83610d03565b9150602083013580151581146110fe575f5ffd5b809150509250929050565b5f5f6040838503121561111a575f5ffd5b50508035926020909101359150565b5f5f6040838503121561113a575f5ffd5b61114383610d03565b915061115160208401610d03565b90509250929050565b5f5f5f5f5f60a0868803121561116e575f5ffd5b61117786610d03565b945061118560208701610d03565b93506040860135925060608601359150608086013567ffffffffffffffff811115610fa8575f5ffd5b5f602082840312156111be575f5ffd5b610d7682610d03565b600181811c908216806111db57607f821691505b6020821081036111f957634e487b7160e01b5f52602260045260245ffd5b50919050565b634e487b7160e01b5f52603260045260245ffd5b8082018082111561025157634e487b7160e01b5f52601160045260245ffd5b604081525f6112446040830185611084565b82810360208401526112568185611084565b95945050505050565b6001600160a01b03868116825285166020820152604081018490526060810183905260a0608082018190525f9061129890830184610d94565b979650505050505050565b5f602082840312156112b3575f5ffd5b8151610d7681610d46565b6001600160a01b0386811682528516602082015260a0604082018190525f906112e990830186611084565b82810360608401526112fb8186611084565b9050828103608084015261130f8185610d94565b9897505050505050505056fea2646970667358221220abdbd6f751c66d5b92dcbabd0c354c60a3849e4149ff0fb9178b6747f5ff79f764736f6c634300081c0033",
  "linkReferences": {},
  "deployedLinkReferences": {},
  "immutableReferences": {},
  "inputSourceName": "project/contracts/Kiln1155.sol",
  "buildInfoId": "solc-0_8_28-dd5be2e5923a04ccfce91cb7f2c697e76ec23f7c"
}