{
  "_format": "hh3-artifact-1",
  "contractName": "Kiln1155",
  "sourceName": "contracts/Kiln1155.sol",
  "abi": [
    {
      "inputs": [
        {
          "internalType": "string",
          "name": "baseURI",
          "type": "string"
        }
      ],
      "stateMutability": "nonpayable",
      "type": "constructor"
    },
    {
      "inputs": [
        {
          "internalType": "address",
          "name": "sender",
          "type": "address"
        },
        {
          "internalType": "uint256",
          "name": "balance",
          "type": "uint256"
        },
        {
          "internalType": "uint256",
          "name": "needed",
          "type": "uint256"
        },
        {
          "internalType": "uint256",
          "name": "tokenId",
          "type": "uint256"
        }
      ],
      "name": "ERC1155InsufficientBalance",
      "type": "error"
    },
    {
      "inputs": [
        {
          "internalType": "address",
          "name": "approver",
          "type": "address"
        }
      ],
      "name": "ERC1155InvalidApprover",
      "type": "error"
    },
    {
      "inputs": [
        {
          "internalType": "uint256",
          "name": "idsLength",
          "type": "uint256"
        },
        {
          "internalType": "uint256",
          "name": "valuesLength",
          "type": "uint256"
        }
      ],
      "name": "ERC1155InvalidArrayLength",
      "type": "error"
    },
    {
      "inputs": [
        {
          "internalType": "address",
          "name": "operator",
          "type": "address"
        }
      ],
      "name": "ERC1155InvalidOperator",
      "type": "error"
    },
    {
      "inputs": [
        {
          "internalType": "address",
          "name": "receiver",
          "type": "address"
        }
      ],
      "name": "ERC1155InvalidReceiver",
      "type": "error"
    },
    {
      "inputs": [
        {
          "internalType": "address",
          "name": "sender",
          "type": "address"
        }
      ],
      "name": "ERC1155InvalidSender",
      "type": "error"
    },
    {
      "inputs": [
        {
          "internalType": "address",
          "name": "operator",
          "type": "address"
        },
        {
          "internalType": "address",
          "name": "owner",
          "type": "address"
        }
      ],
      "name": "ERC1155MissingApprovalForAll",
      "type": "error"
    },
    {
      "inputs": [
        {
          "internalType": "address",
          "name": "owner",
          "type": "address"
        }
      ],
      "name": "OwnableInvalidOwner",
      "type": "error"
    },
    {
      "inputs": [
        {
          "internalType": "address",
          "name": "account",
          "type": "address"
        }
      ],
      "name": "OwnableUnauthorizedAccount",
      "type": "error"
    },
    {
      "anonymous": false,
      "inputs": [
        {
          "indexed": true,
          "internalType": "address",
          "name": "account",
          "type": "address"
        },
        {
          "indexed": true,
          "internalType": "address",
          "name": "operator",
          "type": "address"
        },
        {
          "indexed": false,
          "internalType": "bool",
          "name": "approved",
          "type": "bool"
        }
      ],
      "name": "ApprovalForAll",
      "type": "event"
    },
    {
      "anonymous": false,
      "inputs": [
        {
          "indexed": true,
          "internalType": "address",
          "name": "previousOwner",
          "type": "address"
        },
        {
          "indexed": true,
          "internalType": "address",
          "name": "newOwner",
          "type": "address"
        }
      ],
      "name": "OwnershipTransferred",
      "type": "event"
    },
    {
      "anonymous": false,
      "inputs": [
        {
          "indexed": true,
          "internalType": "address",
          "name": "operator",
          "type": "address"
        },
        {
          "indexed": true,
          "internalType": "address",
          "name": "from",
          "type": "address"
        },
        {
          "indexed": true,
          "internalType": "address",
          "name": "to",
          "type": "address"
        },
        {
          "indexed": false,
          "internalType": "uint256[]",
          "name": "ids",
          "type": "uint256[]"
        },
        {
          "indexed": false,
          "internalType": "uint256[]",
          "name": "values",
          "type": "uint256[]"
        }
      ],
      "name": "TransferBatch",
      "type": "event"
    },
    {
      "anonymous": false,
      "inputs": [
        {
          "indexed": true,
          "internalType": "address",
          "name": "operator",
          "type": "address"
        },
        {
          "indexed": true,
          "internalType": "address",
          "name": "from",
          "type": "address"
        },
        {
          "indexed": true,
          "internalType": "address",
          "name": "to",
          "type": "address"
        },
        {
          "indexed": false,
          "internalType": "uint256",
          "name": "id",
          "type": "uint256"
        },
        {
          "indexed": false,
          "internalType": "uint256",
          "name": "value",
          "type": "uint256"
        }
      ],
      "name": "TransferSingle",
      "type": "event"
    },
    {
      "anonymous": false,
      "inputs": [
        {
          "indexed": false,
          "internalType": "string",
          "name": "value",
          "type": "string"
        },
        {
          "indexed": true,
          "internalType": "uint256",
          "name": "id",
          "type": "uint256"
        }
      ],
      "name": "URI",
      "type": "event"
    },
    {
      "inputs": [],
      "name": "MAX_SUPPLY",
      "outputs": [
        {
          "internalType": "uint256",
          "name": "",
          "type": "uint256"
        }
      ],
      "stateMutability": "view",
      "type": "function"
    },
    {
      "inputs": [
        {
          "internalType": "address",
          "name": "account",
          "type": "address"
        },
        {
          "internalType": "uint256",
          "name": "id",
          "type": "uint256"
        }
      ],
      "name": "balanceOf",
      "outputs": [
        {
          "internalType": "uint256",
          "name": "",
          "type": "uint256"
        }
      ],
      "stateMutability": "view",
      "type": "function"
    },
    {
      "inputs": [
        {
          "internalType": "address[]",
          "name": "accounts",
          "type": "address[]"
        },
        {
          "internalType": "uint256[]",
          "name": "ids",
          "type": "uint256[]"
        }
      ],
      "name": "balanceOfBatch",
      "outputs": [
        {
          "internalType": "uint256[]",
          "name": "",
          "type": "uint256[]"
        }
      ],
      "stateMutability": "view",
      "type": "function"
    },
    {
      "inputs": [
        {
          "internalType": "uint256",
          "name": "id",
          "type": "uint256"
        },
        {
          "internalType": "uint256",
          "name": "amount",
          "type": "uint256"
        }
      ],
      "name": "claim",
      "outputs": [],
      "stateMutability": "nonpayable",
      "type": "function"
    },
    {
      "inputs": [
        {
          "internalType": "address",
          "name": "account",
          "type": "address"
        },
        {
          "internalType": "address",
          "name": "operator",
          "type": "address"
        }
      ],
      "name": "isApprovedForAll",
      "outputs": [
        {
          "internalType": "bool",
          "name": "",
          "type": "bool"
        }
      ],
      "stateMutability": "view",
      "type": "function"
    },
    {
      "inputs": [],
      "name": "owner",
      "outputs": [
        {
          "internalType": "address",
          "name": "",
          "type": "address"
        }
      ],
      "stateMutability": "view",
      "type": "function"
    },
    {
      "inputs": [],
      "name": "renounceOwnership",
      "outputs": [],
      "stateMutability": "nonpayable",
      "type": "function"
    },
    {
      "inputs": [
        {
          "internalType": "address",
          "name": "from",
          "type": "address"
        },
        {
          "internalType": "address",
          "name": "to",
          "type": "address"
        },
        {
          "internalType": "uint256[]",
          "name": "ids",
          "type": "uint256[]"
        },
        {
          "internalType": "uint256[]",
          "name": "values",
          "type": "uint256[]"
        },
        {
          "internalType": "bytes",
          "name": "data",
          "type": "bytes"
        }
      ],
      "name": "safeBatchTransferFrom",
      "outputs": [],
      "stateMutability": "nonpayable",
      "type": "function"
    },
    {
      "inputs": [
        {
          "internalType": "address",
          "name": "from",
          "type": "address"
        },
        {
          "internalType": "address",
          "name": "to",
          "type": "address"
        },
        {
          "internalType": "uint256",
          "name": "id",
          "type": "uint256"
        },
        {
          "internalType": "uint256",
          "name": "value",
          "type": "uint256"
        },
        {
          "internalType": "bytes",
          "name": "data",
          "type": "bytes"
        }
      ],
      "name": "safeTransferFrom",
      "outputs": [],
      "stateMutability": "nonpayable",
      "type": "function"
    },
    {
      "inputs": [
        {
          "internalType": "address",
          "name": "operator",
          "type": "address"
        },
        {
          "internalType": "bool",
          "name": "approved",
          "type": "bool"
        }
      ],
      "name": "setApprovalForAll",
      "outputs": [],
      "stateMutability": "nonpayable",
      "type": "function"
    },
    {
      "inputs": [
        {
          "internalType": "bytes4",
          "name": "interfaceId",
          "type": "bytes4"
        }
      ],
      "name": "supportsInterface",
      "outputs": [
        {
          "internalType": "bool",
          "name": "",
          "type": "bool"
        }
      ],
      "stateMutability": "view",
      "type": "function"
    },
    {
      "inputs": [
        {
          "internalType": "uint256",
          "name": "",
          "type": "uint256"
        }
      ],
      "name": "totalMinted",
      "outputs": [
        {
          "internalType": "uint256",
          "name": "",
          "type": "uint256"
        }
      ],
      "stateMutability": "view",
      "type": "function"
    },
    {
      "inputs": [
        {
          "internalType": "address",
          "name": "newOwner",
          "type": "address"
        }
      ],
      "name": "transferOwnership",
      "outputs": [],
      "stateMutability": "nonpayable",
      "type": "function"
    },
    {
      "inputs": [
        {
          "internalType": "uint256",
          "name": "tokenId",
          "type": "uint256"
        }
      ],
      "name": "uri",
      "outputs": [
        {
          "internalType": "string",
          "name": "",
          "type": "string"
        }
      ],
      "stateMutability": "view",
      "type": "function"
    }
  ],
  "bytecode": "0x608060405234801561000f575f5ffd5b5060405161181b38038061181b83398101604081905261002e916100ec565b338161003981610077565b506001600160a01b03811661006757604051631e4fbdf760e01b81525f600482015260240160405180910390fd5b61007081610087565b50506102da565b60026100838282610220565b5050565b600380546001600160a01b038381166001600160a01b0319831681179093556040519116919082907f8be0079c531659141344cd1fd0a4f28419497f9722a3daafe3b4186f6b6457e0905f90a35050565b634e487b7160e01b5f52604160045260245ffd5b5f602082840312156100fc575f5ffd5b81516001600160401b03811115610111575f5ffd5b8201601f81018413610121575f5ffd5b80516001600160401b0381111561013a5761013a6100d8565b604051601f8201601f19908116603f011681016001600160401b0381118282101715610168576101686100d8565b60405281815282820160200186101561017f575f5ffd5b8160208401602083015e5f91810160200191909152949350505050565b600181811c908216806101b057607f821691505b6020821081036101ce57634e487b7160e01b5f52602260045260245ffd5b50919050565b601f82111561021b57805f5260205f20601f840160051c810160208510156101f95750805b601f840160051c820191505b81811015610218575f8155600101610205565b50505b505050565b81516001600160401b03811115610239576102396100d8565b61024d81610247845461019c565b846101d4565b6020601f82116001811461027f575f83156102685750848201515b5f19600385901b1c1916600184901b178455610218565b5f84815260208120601f198516915b828110156102ae578785015182556020948501946001909201910161028e565b50848210156102cb57868401515f19600387901b60f8161c191681555b50505050600190811b01905550565b611534806102e75f395ff3fe608060405234801561000f575f5ffd5b50600436106100e4575f3560e01c80638da5cb5b11610088578063c349026311610063578063c3490263146101e4578063e985e9c5146101f7578063f242432a1461020a578063f2fde38b1461021d575f5ffd5b80638da5cb5b146101975780639d7f4ebf146101b2578063a22cb465146101d1575f5ffd5b80632eb2c2d6116100c35780632eb2c2d61461015157806332cb6b0c146101665780634e1273f41461016f578063715018a61461018f575f5ffd5b8062fdd58e146100e857806301ffc9a71461010e5780630e89341c14610131575b5f5ffd5b6100fb6100f6366004610ec0565b610230565b6040519081526020015b60405180910390f35b61012161011c366004610efd565b610257565b6040519015158152602001610105565b61014461013f366004610f1f565b6102a6565b6040516101059190610f64565b61016461015f3660046110b4565b6102e1565b005b6100fb6103e881565b61018261017d366004611163565b61034d565b6040516101059190611260565b610164610418565b6003546040516001600160a01b039091168152602001610105565b6100fb6101c0366004610f1f565b60046020525f908152604090205481565b6101646101df366004611272565b61042b565b6101646101f23660046112ab565b61043a565b6101216102053660046112cb565b61051b565b6101646102183660046112fc565b610548565b61016461022b366004611350565b6105a7565b5f818152602081815260408083206001600160a01b03861684529091529020545b92915050565b5f6001600160e01b03198216636cdb3d1360e11b148061028757506001600160e01b031982166303a24d0760e21b145b8061025157506301ffc9a760e01b6001600160e01b0319831614610251565b60606102b15f6105e4565b6102ba83610676565b6040516020016102cb929190611380565b6040516020818303038152906040529050919050565b336001600160a01b03861681148015906103025750610300868261051b565b155b156103385760405163711bec9160e11b81526001600160a01b038083166004830152871660248201526044015b60405180910390fd5b6103458686868686610706565b505050505050565b6060815183511461037e5781518351604051635b05999160e01b81526004810192909252602482015260440161032f565b5f835167ffffffffffffffff81111561039957610399610f76565b6040519080825280602002602001820160405280156103c2578160200160208202803683370190505b5090505f5b8451811015610410576020808202860101516103eb90602080840287010151610230565b8282815181106103fd576103fd6113aa565b60209081029190910101526001016103c7565b509392505050565b61042061076b565b6104295f610798565b565b6104363383836107e9565b5050565b6005821061047d5760405162461bcd60e51b815260206004820152601060248201526f125b9d985b1a59081d1bdad95b88125160821b604482015260640161032f565b5f828152600460205260409020546103e89061049a9083906113be565b11156104dd5760405162461bcd60e51b815260206004820152601260248201527113585e081cdd5c1c1b1e481c995858da195960721b604482015260640161032f565b5f82815260046020526040812080548392906104fa9084906113be565b9250508190555061043633838360405180602001604052805f81525061087d565b6001600160a01b039182165f90815260016020908152604080832093909416825291909152205460ff1690565b336001600160a01b03861681148015906105695750610567868261051b565b155b1561059a5760405163711bec9160e11b81526001600160a01b0380831660048301528716602482015260440161032f565b61034586868686866108d8565b6105af61076b565b6001600160a01b0381166105d857604051631e4fbdf760e01b81525f600482015260240161032f565b6105e181610798565b50565b6060600280546105f3906113dd565b80601f016020809104026020016040519081016040528092919081815260200182805461061f906113dd565b801561066a5780601f106106415761010080835404028352916020019161066a565b820191905f5260205f20905b81548152906001019060200180831161064d57829003601f168201915b50505050509050919050565b60605f61068283610964565b60010190505f8167ffffffffffffffff8111156106a1576106a1610f76565b6040519080825280601f01601f1916602001820160405280156106cb576020820181803683370190505b5090508181016020015b5f19016f181899199a1a9b1b9c1cb0b131b232b360811b600a86061a8153600a85049450846106d557509392505050565b6001600160a01b03841661072f57604051632bfa23e760e11b81525f600482015260240161032f565b6001600160a01b03851661075757604051626a0d4560e21b81525f600482015260240161032f565b6107648585858585610a3b565b5050505050565b6003546001600160a01b031633146104295760405163118cdaa760e01b815233600482015260240161032f565b600380546001600160a01b038381166001600160a01b0319831681179093556040519116919082907f8be0079c531659141344cd1fd0a4f28419497f9722a3daafe3b4186f6b6457e0905f90a35050565b6001600160a01b0382166108115760405162ced3e160e81b81525f600482015260240161032f565b6001600160a01b038381165f81815260016020908152604080832094871680845294825291829020805460ff191686151590811790915591519182527f17307eab39ab6107e8899845ad3d59bd9653f200f220920489ca2b5937696c31910160405180910390a3505050565b6001600160a01b0384166108a657604051632bfa23e760e11b81525f600482015260240161032f565b604080516001808252602082018690528183019081526060820185905260808201909252906103455f87848487610a3b565b6001600160a01b03841661090157604051632bfa23e760e11b81525f600482015260240161032f565b6001600160a01b03851661092957604051626a0d4560e21b81525f600482015260240161032f565b6040805160018082526020820186905281830190815260608201859052608082019092529061095b8787848487610a3b565b50505050505050565b5f8072184f03e93ff9f4daa797ed6e38ed64bf6a1f0160401b83106109a25772184f03e93ff9f4daa797ed6e38ed64bf6a1f0160401b830492506040015b6d04ee2d6d415b85acef810000000083106109ce576d04ee2d6d415b85acef8100000000830492506020015b662386f26fc1000083106109ec57662386f26fc10000830492506010015b6305f5e1008310610a04576305f5e100830492506008015b6127108310610a1857612710830492506004015b60648310610a2a576064830492506002015b600a83106102515760010192915050565b610a4785858585610a8e565b6001600160a01b038416156107645782513390600103610a805760208481015190840151610a79838989858589610c9d565b5050610345565b610345818787878787610dbe565b8051825114610abd5781518151604051635b05999160e01b81526004810192909252602482015260440161032f565b335f5b8351811015610bbf576020818102858101820151908501909101516001600160a01b03881615610b71575f828152602081815260408083206001600160a01b038c16845290915290205481811015610b4b576040516303dee4c560e01b81526001600160a01b038a16600482015260248101829052604481018390526064810184905260840161032f565b5f838152602081815260408083206001600160a01b038d16845290915290209082900390555b6001600160a01b03871615610bb5575f828152602081815260408083206001600160a01b038b16845290915281208054839290610baf9084906113be565b90915550505b5050600101610ac0565b508251600103610c3f5760208301515f906020840151909150856001600160a01b0316876001600160a01b0316846001600160a01b03167fc3d58168c5ae7397731d063d5bbf3d657854427343f4c083240f7aacaa2d0f628585604051610c30929190918252602082015260400190565b60405180910390a45050610764565b836001600160a01b0316856001600160a01b0316826001600160a01b03167f4a39dc06d4c0dbc64b70af90fd698a233a518aa5d07e595d983b8c0526c8f7fb8686604051610c8e929190611415565b60405180910390a45050505050565b6001600160a01b0384163b156103455760405163f23a6e6160e01b81526001600160a01b0385169063f23a6e6190610ce19089908990889088908890600401611442565b6020604051808303815f875af1925050508015610d1b575060408051601f3d908101601f19168201909252610d1891810190611486565b60015b610d82573d808015610d48576040519150601f19603f3d011682016040523d82523d5f602084013e610d4d565b606091505b5080515f03610d7a57604051632bfa23e760e11b81526001600160a01b038616600482015260240161032f565b805160208201fd5b6001600160e01b0319811663f23a6e6160e01b1461095b57604051632bfa23e760e11b81526001600160a01b038616600482015260240161032f565b6001600160a01b0384163b156103455760405163bc197c8160e01b81526001600160a01b0385169063bc197c8190610e0290899089908890889088906004016114a1565b6020604051808303815f875af1925050508015610e3c575060408051601f3d908101601f19168201909252610e3991810190611486565b60015b610e69573d808015610d48576040519150601f19603f3d011682016040523d82523d5f602084013e610d4d565b6001600160e01b0319811663bc197c8160e01b1461095b57604051632bfa23e760e11b81526001600160a01b038616600482015260240161032f565b80356001600160a01b0381168114610ebb575f5ffd5b919050565b5f5f60408385031215610ed1575f5ffd5b610eda83610ea5565b946020939093013593505050565b6001600160e01b0319811681146105e1575f5ffd5b5f60208284031215610f0d575f5ffd5b8135610f1881610ee8565b9392505050565b5f60208284031215610f2f575f5ffd5b5035919050565b5f81518084528060208401602086015e5f602082860101526020601f19601f83011685010191505092915050565b602081525f610f186020830184610f36565b634e487b7160e01b5f52604160045260245ffd5b604051601f8201601f1916810167ffffffffffffffff81118282101715610fb357610fb3610f76565b604052919050565b5f67ffffffffffffffff821115610fd457610fd4610f76565b5060051b60200190565b5f82601f830112610fed575f5ffd5b8135611000610ffb82610fbb565b610f8a565b8082825260208201915060208360051b860101925085831115611021575f5ffd5b602085015b8381101561103e578035835260209283019201611026565b5095945050505050565b5f82601f830112611057575f5ffd5b813567ffffffffffffffff81111561107157611071610f76565b611084601f8201601f1916602001610f8a565b818152846020838601011115611098575f5ffd5b816020850160208301375f918101602001919091529392505050565b5f5f5f5f5f60a086880312156110c8575f5ffd5b6110d186610ea5565b94506110df60208701610ea5565b9350604086013567ffffffffffffffff8111156110fa575f5ffd5b61110688828901610fde565b935050606086013567ffffffffffffffff811115611122575f5ffd5b61112e88828901610fde565b925050608086013567ffffffffffffffff81111561114a575f5ffd5b61115688828901611048565b9150509295509295909350565b5f5f60408385031215611174575f5ffd5b823567ffffffffffffffff81111561118a575f5ffd5b8301601f8101851361119a575f5ffd5b80356111a8610ffb82610fbb565b8082825260208201915060208360051b8501019250878311156111c9575f5ffd5b6020840193505b828410156111f2576111e184610ea5565b8252602093840193909101906111d0565b9450505050602083013567ffffffffffffffff811115611210575f5ffd5b61121c85828601610fde565b9150509250929050565b5f8151808452602084019350602083015f5b82811015611256578151865260209586019590910190600101611238565b5093949350505050565b602081525f610f186020830184611226565b5f5f60408385031215611283575f5ffd5b61128c83610ea5565b9150602083013580151581146112a0575f5ffd5b809150509250929050565b5f5f604083850312156112bc575f5ffd5b50508035926020909101359150565b5f5f604083850312156112dc575f5ffd5b6112e583610ea5565b91506112f360208401610ea5565b90509250929050565b5f5f5f5f5f60a08688031215611310575f5ffd5b61131986610ea5565b945061132760208701610ea5565b93506040860135925060608601359150608086013567ffffffffffffffff81111561114a575f5ffd5b5f60208284031215611360575f5ffd5b610f1882610ea5565b5f81518060208401855e5f93019283525090919050565b5f61139461138e8386611369565b84611369565b64173539b7b760d91b8152600501949350505050565b634e487b7160e01b5f52603260045260245ffd5b8082018082111561025157634e487b7160e01b5f52601160045260245ffd5b600181811c908216806113f157607f821691505b60208210810361140f57634e487b7160e01b5f52602260045260245ffd5b50919050565b604081525f6114276040830185611226565b82810360208401526114398185611226565b95945050505050565b6001600160a01b03868116825285166020820152604081018490526060810183905260a0608082018190525f9061147b90830184610f36565b979650505050505050565b5f60208284031215611496575f5ffd5b8151610f1881610ee8565b6001600160a01b0386811682528516602082015260a0604082018190525f906114cc90830186611226565b82810360608401526114de8186611226565b905082810360808401526114f28185610f36565b9897505050505050505056fea264697066735822122050806f739d479664935beab52d66df6b9a0d510a8d342c6dd4d7f29a5dc089aa64736f6c634300081c0033",
  "linkReferences": {},
  "deployedLinkReferences": {},
  "immutableReferences": {},
  "inputSourceName": "project/contracts/Kiln1155.sol",
  "buildInfoId": "solc-0_8_28-4b38f7cc1d12039121cf35a2619ce51e6e298634"
}